:020000040000FA
:1000000005100130860085143E2085103E200A2808
:040010000034003484
:0C00140007309F0003138316860185014E
:1000200083128510051005100130860085143E20CE
:1000300085103E200C30860085143E2085103E2021
:100040003C30860085143E2085103E209030B40060
:1000500034308600D030B5001030B60005103E2098
:1000600034038600B400392005143E205020BD2002
:100070002E2885143E2085103E200800A0010A305D
:10008000A1005030A000A00B4328A10B412808007C
:1000900005103E2001308600392005143E2008005E
:1000A0005330860039206130860039207230860056
:1000B00039206130860039202030860039205230C6
:1000C000860039206F308600392064308600392060
:1000D000723086003920693086003920673086000A
:1000E00039207530860039206530860039207A3015
:1000F000860039202030860039204730860039209C
:1001000005103E2035038600B500392005143E2039
:100110004D30860039204930860039204330860032
:1001200039205230860039204F3086003920533034
:100130008600392020308600392020308600392082
:100140004D308600392043308600392054308600F7
:100150003920203086003920203086003920373081
:100160008600392030308600392030308600392032
:10017000BA200800B60B0800BC280000000032308E
:10018000B300B30BC1282830B00000002330B10009
:1001900000005030B200B20BCB28B10BC828B00B16
:0401A000C528080066
:02400E00393F38
:00000001FF
