:020000040000FA
:1000000005100130860085143520851035200A281A
:040010000034003484
:0C00140007309F0003138316860185014E
:1000200083128510051005100130860085143520D7
:10003000851035200C30860085143520851035203C
:100040003C3086008514352085103520F32047216B
:100050003F209D2047213F20472047213F20262841
:1000600085143520851035200800A0010A30A10034
:100070005030A000A00B3A28A10B3828080005102A
:10008000352001308600302005143520080000009E
:100090000000051035208130860030200514352001
:1000A000203086003020203086003020203086002E
:1000B0003020203086003020F33086003020483059
:1000C000860030206F30860030206C308600302073
:1000D000613086003020F3308600302020308600EA
:1000E0003020203086003020203086003020203024
:1000F0008600302020308600302005103520C430A6
:1001000086003020051435202030860030204D3008
:10011000860030207530860030206E30860030201A
:100120006430860030206F3086003020203086001A
:100130003020EF308600302008000000000005105D
:100140003520813086003020051435203730860078
:100150003020303086003020303086003020203093
:10016000860030204D30860030204530860030201B
:1001700043308600302041308600302054308600E5
:1001800030205230860030204F30860030204E30F4
:1001900086003020493086003020433086003020F1
:1001A00041308600302005103520C43086003020D4
:1001B000051435202030860030204D308600302058
:1001C000493086003020433086003020523086008F
:1001D00030204F30860030205330860030202030D1
:1001E0008600302008000510352081308600302040
:1001F00005143520533086003020613086003020D1
:100200007230860030206130860030202030860039
:1002100030205230860030206F308600302064302D
:100220008600302072308600302069308600302011
:1002300067308600302075308600302065308600BB
:1002400030207A30860030202030860030200510A3
:100250003520C43086003020051435204730860014
:1002600030206F30860030206E30860030207A30AB
:10027000860030206130860030206C3086003020CF
:100280006530860030207A3086003020080000007B
:1002900000003230B300B30B4B293230B000000005
:1002A0004630B10000005030B200B20B5529B10BFE
:0802B0005229B00B4F29080090
:02400E00393F38
:00000001FF
